{
  "_format": "hh-sol-artifact-1",
  "contractName": "Voting",
  "sourceName": "contracts/vote.sol",
  "abi": [
    {
      "inputs": [],
      "stateMutability": "nonpayable",
      "type": "constructor"
    },
    {
      "anonymous": false,
      "inputs": [
        {
          "indexed": true,
          "internalType": "uint256",
          "name": "candidateId",
          "type": "uint256"
        },
        {
          "indexed": true,
          "internalType": "address",
          "name": "voter",
          "type": "address"
        }
      ],
      "name": "Voted",
      "type": "event"
    },
    {
      "inputs": [
        {
          "internalType": "string",
          "name": "_name",
          "type": "string"
        },
        {
          "internalType": "string",
          "name": "_party",
          "type": "string"
        }
      ],
      "name": "addCandidate",
      "outputs": [],
      "stateMutability": "nonpayable",
      "type": "function"
    },
    {
      "inputs": [
        {
          "internalType": "uint256",
          "name": "",
          "type": "uint256"
        }
      ],
      "name": "candidates",
      "outputs": [
        {
          "internalType": "string",
          "name": "name",
          "type": "string"
        },
        {
          "internalType": "string",
          "name": "party",
          "type": "string"
        },
        {
          "internalType": "uint256",
          "name": "voteCount",
          "type": "uint256"
        },
        {
          "internalType": "address",
          "name": "voters",
          "type": "address"
        }
      ],
      "stateMutability": "view",
      "type": "function"
    },
    {
      "inputs": [],
      "name": "candidatesCount",
      "outputs": [
        {
          "internalType": "uint256",
          "name": "",
          "type": "uint256"
        }
      ],
      "stateMutability": "view",
      "type": "function"
    },
    {
      "inputs": [
        {
          "internalType": "uint256",
          "name": "_candidateId",
          "type": "uint256"
        }
      ],
      "name": "getCandidate",
      "outputs": [
        {
          "internalType": "uint256",
          "name": "",
          "type": "uint256"
        }
      ],
      "stateMutability": "view",
      "type": "function"
    },
    {
      "inputs": [],
      "name": "getVotes",
      "outputs": [
        {
          "components": [
            {
              "internalType": "string",
              "name": "name",
              "type": "string"
            },
            {
              "internalType": "string",
              "name": "party",
              "type": "string"
            },
            {
              "internalType": "uint256",
              "name": "voteCount",
              "type": "uint256"
            },
            {
              "internalType": "address",
              "name": "voters",
              "type": "address"
            }
          ],
          "internalType": "struct Voting.Candidate[]",
          "name": "",
          "type": "tuple[]"
        }
      ],
      "stateMutability": "view",
      "type": "function"
    },
    {
      "inputs": [
        {
          "internalType": "address",
          "name": "",
          "type": "address"
        }
      ],
      "name": "hasVoted",
      "outputs": [
        {
          "internalType": "bool",
          "name": "",
          "type": "bool"
        }
      ],
      "stateMutability": "view",
      "type": "function"
    },
    {
      "inputs": [
        {
          "internalType": "uint256",
          "name": "",
          "type": "uint256"
        }
      ],
      "name": "listOfCandidate",
      "outputs": [
        {
          "internalType": "string",
          "name": "name",
          "type": "string"
        },
        {
          "internalType": "string",
          "name": "party",
          "type": "string"
        },
        {
          "internalType": "uint256",
          "name": "voteCount",
          "type": "uint256"
        },
        {
          "internalType": "address",
          "name": "voters",
          "type": "address"
        }
      ],
      "stateMutability": "view",
      "type": "function"
    },
    {
      "inputs": [
        {
          "internalType": "uint256",
          "name": "_candidateId",
          "type": "uint256"
        }
      ],
      "name": "vote",
      "outputs": [],
      "stateMutability": "nonpayable",
      "type": "function"
    }
  ],
  "bytecode": "0x608060405234801561001057600080fd5b50611188806100206000396000f3fe608060405234801561001057600080fd5b50600436106100885760003560e01c80632d35a8a21161005b5780632d35a8a2146101135780633477ee2e1461013157806335b8e82014610164578063c672d9d81461019457610088565b80630121b93f1461008d57806309eef43e146100a95780630dc96015146100d957806326541b56146100f7575b600080fd5b6100a760048036038101906100a29190610b76565b6101c7565b005b6100c360048036038101906100be9190610ae1565b610370565b6040516100d09190610df1565b60405180910390f35b6100e1610390565b6040516100ee9190610dcf565b60405180910390f35b610111600480360381019061010c9190610b0a565b610573565b005b61011b61067c565b6040516101289190610e9f565b60405180910390f35b61014b60048036038101906101469190610b76565b610682565b60405161015b9493929190610e0c565b60405180910390f35b61017e60048036038101906101799190610b76565b6107e2565b60405161018b9190610e9f565b60405180910390f35b6101ae60048036038101906101a99190610b76565b61083c565b6040516101be9493929190610e0c565b60405180910390f35b600260003373ffffffffffffffffffffffffffffffffffffffff1673ffffffffffffffffffffffffffffffffffffffff16815260200190815260200160002060009054906101000a900460ff1615610254576040517f08c379a000000000000000000000000000000000000000000000000000000000815260040161024b90610e5f565b60405180910390fd5b60008111801561026657506003548111155b6102a5576040517f08c379a000000000000000000000000000000000000000000000000000000000815260040161029c90610e7f565b60405180910390fd5b6001600260003373ffffffffffffffffffffffffffffffffffffffff1673ffffffffffffffffffffffffffffffffffffffff16815260200190815260200160002060006101000a81548160ff0219169083151502179055506001600082815260200190815260200160002060020160008154809291906103249061103d565b91905055503373ffffffffffffffffffffffffffffffffffffffff16817f030b0f8dcd86a031eddb071f91882edeac8173663ba775713b677b42b51be44b60405160405180910390a350565b60026020528060005260406000206000915054906101000a900460ff1681565b60606000805480602002602001604051908101604052809291908181526020016000905b8282101561056a57838290600052602060002090600402016040518060800160405290816000820180546103e79061100b565b80601f01602080910402602001604051908101604052809291908181526020018280546104139061100b565b80156104605780601f1061043557610100808354040283529160200191610460565b820191906000526020600020905b81548152906001019060200180831161044357829003601f168201915b505050505081526020016001820180546104799061100b565b80601f01602080910402602001604051908101604052809291908181526020018280546104a59061100b565b80156104f25780601f106104c7576101008083540402835291602001916104f2565b820191906000526020600020905b8154815290600101906020018083116104d557829003601f168201915b50505050508152602001600282015481526020016003820160009054906101000a900473ffffffffffffffffffffffffffffffffffffffff1673ffffffffffffffffffffffffffffffffffffffff1673ffffffffffffffffffffffffffffffffffffffff1681525050815260200190600101906103b4565b50505050905090565b600060405180608001604052808481526020018381526020016003600081548092919061059f9061103d565b9190505581526020013373ffffffffffffffffffffffffffffffffffffffff16815250908060018154018082558091505060019003906000526020600020906004020160009091909190915060008201518160000190805190602001906106079291906109ac565b5060208201518160010190805190602001906106249291906109ac565b506040820151816002015560608201518160030160006101000a81548173ffffffffffffffffffffffffffffffffffffffff021916908373ffffffffffffffffffffffffffffffffffffffff16021790555050505050565b60035481565b60016020528060005260406000206000915090508060000180546106a59061100b565b80601f01602080910402602001604051908101604052809291908181526020018280546106d19061100b565b801561071e5780601f106106f35761010080835404028352916020019161071e565b820191906000526020600020905b81548152906001019060200180831161070157829003601f168201915b5050505050908060010180546107339061100b565b80601f016020809104026020016040519081016040528092919081815260200182805461075f9061100b565b80156107ac5780601f10610781576101008083540402835291602001916107ac565b820191906000526020600020905b81548152906001019060200180831161078f57829003601f168201915b5050505050908060020154908060030160009054906101000a900473ffffffffffffffffffffffffffffffffffffffff16905084565b600080821180156107f557506003548211155b610834576040517f08c379a000000000000000000000000000000000000000000000000000000000815260040161082b90610e7f565b60405180910390fd5b819050919050565b6000818154811061084c57600080fd5b906000526020600020906004020160009150905080600001805461086f9061100b565b80601f016020809104026020016040519081016040528092919081815260200182805461089b9061100b565b80156108e85780601f106108bd576101008083540402835291602001916108e8565b820191906000526020600020905b8154815290600101906020018083116108cb57829003601f168201915b5050505050908060010180546108fd9061100b565b80601f01602080910402602001604051908101604052809291908181526020018280546109299061100b565b80156109765780601f1061094b57610100808354040283529160200191610976565b820191906000526020600020905b81548152906001019060200180831161095957829003601f168201915b5050505050908060020154908060030160009054906101000a900473ffffffffffffffffffffffffffffffffffffffff16905084565b8280546109b89061100b565b90600052602060002090601f0160209004810192826109da5760008555610a21565b82601f106109f357805160ff1916838001178555610a21565b82800160010185558215610a21579182015b82811115610a20578251825591602001919060010190610a05565b5b509050610a2e9190610a32565b5090565b5b80821115610a4b576000816000905550600101610a33565b5090565b6000610a62610a5d84610eeb565b610eba565b905082815260208101848484011115610a7a57600080fd5b610a85848285610fc9565b509392505050565b600081359050610a9c81611124565b92915050565b600082601f830112610ab357600080fd5b8135610ac3848260208601610a4f565b91505092915050565b600081359050610adb8161113b565b92915050565b600060208284031215610af357600080fd5b6000610b0184828501610a8d565b91505092915050565b60008060408385031215610b1d57600080fd5b600083013567ffffffffffffffff811115610b3757600080fd5b610b4385828601610aa2565b925050602083013567ffffffffffffffff811115610b6057600080fd5b610b6c85828601610aa2565b9150509250929050565b600060208284031215610b8857600080fd5b6000610b9684828501610acc565b91505092915050565b6000610bab8383610d47565b905092915050565b610bbc81610f81565b82525050565b610bcb81610f81565b82525050565b6000610bdc82610f2b565b610be68185610f4e565b935083602082028501610bf885610f1b565b8060005b85811015610c345784840389528151610c158582610b9f565b9450610c2083610f41565b925060208a01995050600181019050610bfc565b50829750879550505050505092915050565b610c4f81610f93565b82525050565b6000610c6082610f36565b610c6a8185610f5f565b9350610c7a818560208601610fd8565b610c8381611113565b840191505092915050565b6000610c9982610f36565b610ca38185610f70565b9350610cb3818560208601610fd8565b610cbc81611113565b840191505092915050565b6000610cd4601783610f70565b91507f596f75206861766520616c726561647920766f7465642e0000000000000000006000830152602082019050919050565b6000610d14601583610f70565b91507f496e76616c69642063616e6469646174652049442e00000000000000000000006000830152602082019050919050565b60006080830160008301518482036000860152610d648282610c55565b91505060208301518482036020860152610d7e8282610c55565b9150506040830151610d936040860182610db1565b506060830151610da66060860182610bb3565b508091505092915050565b610dba81610fbf565b82525050565b610dc981610fbf565b82525050565b60006020820190508181036000830152610de98184610bd1565b905092915050565b6000602082019050610e066000830184610c46565b92915050565b60006080820190508181036000830152610e268187610c8e565b90508181036020830152610e3a8186610c8e565b9050610e496040830185610dc0565b610e566060830184610bc2565b95945050505050565b60006020820190508181036000830152610e7881610cc7565b9050919050565b60006020820190508181036000830152610e9881610d07565b9050919050565b6000602082019050610eb46000830184610dc0565b92915050565b6000604051905081810181811067ffffffffffffffff82111715610ee157610ee06110e4565b5b8060405250919050565b600067ffffffffffffffff821115610f0657610f056110e4565b5b601f19601f8301169050602081019050919050565b6000819050602082019050919050565b600081519050919050565b600081519050919050565b6000602082019050919050565b600082825260208201905092915050565b600082825260208201905092915050565b600082825260208201905092915050565b6000610f8c82610f9f565b9050919050565b60008115159050919050565b600073ffffffffffffffffffffffffffffffffffffffff82169050919050565b6000819050919050565b82818337600083830152505050565b60005b83811015610ff6578082015181840152602081019050610fdb565b83811115611005576000848401525b50505050565b6000600282049050600182168061102357607f821691505b60208210811415611037576110366110b5565b5b50919050565b600061104882610fbf565b91507fffffffffffffffffffffffffffffffffffffffffffffffffffffffffffffffff82141561107b5761107a611086565b5b600182019050919050565b7f4e487b7100000000000000000000000000000000000000000000000000000000600052601160045260246000fd5b7f4e487b7100000000000000000000000000000000000000000000000000000000600052602260045260246000fd5b7f4e487b7100000000000000000000000000000000000000000000000000000000600052604160045260246000fd5b6000601f19601f8301169050919050565b61112d81610f81565b811461113857600080fd5b50565b61114481610fbf565b811461114f57600080fd5b5056fea26469706673582212205ed43e0c7ddcdc4360e675f7632e58cf04155975564b9be9c01f080168dc0be064736f6c63430008000033",
  "linkReferences": {},
  "deployedLinkReferences": {}
}